S02B00002F686F6D652F62727733322F576172702D6669726D776172652F6275696C642F6B73646B312E312FF0
S113000000060020310500005905000059050000D4
S113001000000000000000000000000000000000DC
S1130020000000000000000000000000590500006E
S11300300000000000000000590500005905000000
S11300405905000059050000590500005905000034
S11300505905000059050000590500005905000024
S1130060B940000059050000C340000059050000D4
S11300705905000059050000590500005905000004
S113008059050000590500005905000059050000F4
S1130090D5320000ED32000059050000590500007A
S11300A059050000590500005905000059050000D4
S11300B059050000590500005905000059050000C4
S1130400FFFFFFFFFFFFFFFFFFFFFFFFFE3DFFFFBB
S113041008B5054B054803331B1A062B03D9044BB7
S1130420002B00D0984708BD9CFFFF1F9CFFFF1FB7
S1130430000000000648074908B5091A8910CB0FC7
S11304405918491003D0044B002B00D0984708BD1D
S11304509CFFFF1F9CFFFF1F0000000010B5074C0E
S11304602378002B09D1FFF7D3FF054B002B02D0D3
S1130470044800E000BF0123237010BD9CFFFF1F50
S1130480000000009870000008B5094B002B03D051
S11304900848094900E000BF08480368002B02D15E
S11304A0FFF7C8FF08BD064B002BF9D09847F7E7C4
S11304B00000000098700000A0FFFF1F98FFFF1FBE
S11304C000000000144B002B00D1124B9D4640222B
S11304D092029A1A924600218B460F461148124AFC
S11304E0121A06F010F90D4B002B00D098470C4B54
S11304F0002B00D098470020002104000D000B4879
S113050006F070F806F0BCF82000290002F0D8FFCD
S113051006F08CF80000080000060020000000002F
S1130520000000009CFFFF1FC80200205966000065
S113053072B606480649074A02600A6003F0C6FD1F
S113054003F006FE62B6FFF7BDFF000080E100E0A5
S113055080E200E0FFFFFFFF00480047590500006C
S113056002B4714649084900095649008E4402BC48
S11305707047C04602B4714649084900095C490005
S11305808E4402BC7047C046002243088B4274D399
S113059003098B425FD3030A8B4244D3030B8B4280
S11305A028D3030C8B420DD3FF22090212BA030C89
S11305B08B4202D31212090265D0030B8B4219D36A
S11305C000E0090AC30B8B4201D3CB03C01A52418A
S11305D0830B8B4201D38B03C01A5241430B8B42D2
S11305E001D34B03C01A5241030B8B4201D30B03BB
S11305F0C01A5241C30A8B4201D3CB02C01A5241E2
S1130600830A8B4201D38B02C01A5241430A8B42A4
S113061001D34B02C01A5241030A8B4201D30B028D
S1130620C01A5241CDD2C3098B4201D3CB01C01AA7
S1130630524183098B4201D38B01C01A52414309B1
S11306408B4201D34B01C01A524103098B4201D39F
S11306500B01C01A5241C3088B4201D3CB00C01A0C
S1130660524183088B4201D38B00C01A5241430884
S11306708B4201D34B00C01A5241411A00D20146A9
S1130680524110467047FFE701B5002000F0FCF826
S113069002BDC0460029F7D003B5FFF775FF0EBCB5
S11306A04243891A1847C04603460B437FD40022AD
S11306B043088B4274D303098B425FD3030A8B42F2
S11306C044D3030B8B4228D3030C8B420DD3FF225C
S11306D0090212BA030C8B4202D31212090265D02A
S11306E0030B8B4219D300E0090AC30B8B4201D3DD
S11306F0CB03C01A5241830B8B4201D38B03C01A24
S11307005241430B8B4201D34B03C01A5241030B9A
S11307108B4201D30B03C01A5241C30A8B4201D34B
S1130720CB02C01A5241830A8B4201D38B02C01AF6
S11307305241430A8B4201D34B02C01A5241030A6D
S11307408B4201D30B02C01A5241CDD2C3098B4252
S113075001D3CB01C01A524183098B4201D38B01CF
S1130760C01A524143098B4201D34B01C01A524172
S113077003098B4201D30B01C01A5241C3088B42B7
S113078001D3CB00C01A524183088B4201D38B00A2
S1130790C01A524143088B4201D34B00C01A524144
S11307A0411A00D201465241104670475DE0CA0F1B
S11307B000D04942031000D34042534000229C46DB
S11307C003098B422DD3030A8B4212D3FC228901E5
S11307D012BA030A8B420CD3890192118B4208D3BB
S11307E0890192118B4204D389013AD0921100E01D
S11307F08909C3098B4201D3CB01C01A5241830931
S11308008B4201D38B01C01A524143098B4201D35D
S11308104B01C01A524103098B4201D30B01C01A88
S11308205241C3088B4201D3CB00C01A5241830802
S11308308B4201D38B00C01A5241D9D243088B4258
S113084001D34B00C01A5241411A00D201466346FB
S113085052415B10104601D34042002B00D549425F
S1130860704763465B1000D3404201B5002000F09E
S11308700BF802BD0029F8D003B5FFF715FF0EBC35
S11308804243891A1847C0467047C0468446101C24
S113089062468C46191C634600E0C0461FB501F051
S11308A0FFFC002801D40021C8421FBD10B501F08F
S11308B043FC4042013010BD10B501F0F1FC0028AA
S11308C001DB002010BD012010BDC04610B501F0B1
S11308D0E7FC002801DD002010BD012010BDC0464A
S11308E010B501F06DFC002801DC002010BD0120D2
S11308F010BDC04610B501F063FC002801DA0020E9
S113090010BD012010BDC046F8B54A0043024400A2
S11309104E02C50F240E281C9B09120EC90FB709DD
S11309208D4240D0A01A002800DC84E0002A1CD1AB
S1130930002F5CD15A0704D00F221A40042A00D099
S113094004338022D2041A40281C002A24D0013403
S1130950FF2C00D17BE09B015B0AE4B25B02E4055F
S11309605B0A2343C0071843F8BDFF2CE2D0802262
S1130970D204174301261B2808DC391C20223E1C04
S1130980C140101A8640771EBE410E439B1B5A017C
S113099033D4281C5A07CFD1DB08FF2C1ED05B02AE
S11309A05B0AE4B2DAE7A11A002957DD002A3AD03B
S11309B0FF2CBFD08022D204174301261B2972DDED
S11309C09B195A01E5D50134FF2C00D187E00121A0
S11309D08A4A194013405B080B43ABE7002B36D01F
S11309E08022D20313435B025B0AFF24B6E701387B
S11309F000283FD1DB1B5A01CBD59B019E09301C3B
S1130A0002F01EFC05388640844223DC001B1F24B0
S1130A10321C431C201ADA408640131C741EA64163
S1130A200024334386E7002F00D183E701390029EE
S1130A3050D1DB19C5E7002820D1621CD2B2012AAB
S1130A405EDDDE1B720128D5FE1A0D1CD7E7FF24DC
S1130A50002383E7694B241A33406BE7002958D1FC
S1130A60621CD1B201293CDDFF2A37D0FB185B0898
S1130A70141C5FE7FF2C00D07CE75BE7002C1ED042
S1130A80FF2A23D08024E404404223431B285BDD57
S1130A900123FB1A141C0D1CADE7002EAFD100235B
S1130AA00020002478E73A1CCA40944620223E1CC9
S1130AB0511A8E406246771EBE41164380E7002BD2
S1130AC03ED0C0430028E4D0FF2ADFD13B1CFF24E2
S1130AD00D1C2FE7FF2C00D06FE72BE7FF2400232A
S1130AE05AE7002C5AD1002B7FD0002F00D121E7E8
S1130AF0DB195A0100D44CE7404A0134134019E78A
S1130B00002C15D1002B2FD1002F5DD03B1C0D1CC8
S1130B1010E7002C21D1002B53D0C943002904D065
S1130B20FF2A4BD01B2957DD0123DB19141C48E78E
S1130B30002B22D1002F4AD03B1C0D1CFF24F9E6C8
S1130B403B1C141C0D1CF5E61D1C2024C540201A5A
S1130B508340581E83412B439BE7FF2A2ED08024D9
S1130B60E40449422343DDE7002F00D1E2E6DA1B27
S1130B7050013CD5FB1A0D1CDCE6FF24002F00D1EC
S1130B80D8E68022DB08D203134204D0FE081642C2
S1130B9001D1331C0D1CDB00FF24CBE6002B0DD050
S1130BA0FF24002F00D1C5E68022DB08D2031342C4
S1130BB0F1D0FE081642EED1331CECE73B1CFF24B7
S1130BC0B8E63B1C141CB5E6231C0020E4E6802395
S1130BD000209B04FF24DFE61E1C2024CE40611A63
S1130BE08B40591E8B4133439FE73B1CA2E6131EE7
S1130BF000D0CEE600230020CEE6C046FFFFFFFB78
S1130C00F0B556464D465F464446F0B443024500AF
S1130C10C70F83B08A465C0A2E0EB94641D0FF2E18
S1130C2026D080231B042343DC00002398469B46E4
S1130C307F3E53465B025D0A53465A00DB0F120E99
S1130C409A4639D0FF2A33D080231B042B43DD007E
S1130C5000237F3A5146B21A46467940081C019255
S1130C601E430F2E00D976E07E4AB6009659B74649
S1130C70002C30D108239846063B9B46D9E78023B5
S1130C800021DB03FF245B02E4055B0AC90723435D
S1130C900B43181C03B03CBC90469946A246AB4695
S1130CA0F0BD002C28D104239846033B9B46C0E7A3
S1130CB0002D1FD1022302E0002D11D10123B21A0D
S1130CC050464646784001921E430F2E27D8664967
S1130CD0B60089598F460C239846093B9B46A8E7E2
S1130CE0281C02F0ADFA7622431F52429D40121A8C
S1130CF00023AFE70323ADE7201C02F0A1FA431F52
S1130D009C4076235B421E1A002398469B4690E73C
S1130D100025D1469B465B464846022B6FD10121F4
S1130D20FF2401400023AEE77E23019A5B429B1A15
S1130D301B2B6DDD01214B46194000240023A2E743
S1130D408023DB031C4249D18023DB0323435B0262
S1130D505B0A391C96E763016D01AB4237D38946C0
S1130D601A2001215B1B01241E1C49005B00002E7C
S1130D7001DBAB4201D35B1B214301380028F3D1D3
S1130D80581E83410B431D1C019C7F34002CCBDD7A
S1130D906B0704D00F232B40042B00D004352B0108
S1130DA004D5019A314B8032141C1D40FE2C07DD02
S1130DB04B460121FF241940002364E7251CAAE7C0
S1130DC001214A46AB015B0AE4B211405BE7019A98
S1130DD08946013A01921B200021C4E71D4207D035
S1130DE023435B025B0A391C4CE700256302ABD545
S1130DF08023DB032B435B025B0A514642E7032B50
S1130E0025D0012BC0D101210024014000233AE761
S1130E10291CD9402B1C019A9E3293405D1EAB4184
S1130E200B435A0704D00F221A40042A00D004337B
S1130E305A0105D54B46012101241940002322E71C
S1130E4001214A469B015B0A114000241BE78023D1
S1130E5001214A46DB032B435B020A405B0A111C57
S1130E6010E7C046546A0000946A0000FFFFFFF7D1
S1130E70F0B55F4656464D464446F0B4450246003A
S1130E80C40F83B00F1C6D0A360EA34645D0FF2E47
S1130E9025D080231B041D4300239A46ED007F3E8A
S1130EA001937B025B0A98467800FB0F000E99467B
S1130EB040D0FF2838D0802342461B041343DB0074
S1130EC0984600237F384A46019F30186240411CEF
S1130ED01F430F2F69D87D4EBF00F659B746002D2A
S1130EE045D108230193063B9A46DAE793465346D5
S1130EF0022B2FD15B46012400251C40FF236D02E9
S1130F00DB056D0AE4071D432543281C03B03CBCE4
S1130F1090469946A246AB46F0BD002D2CD1042341
S1130F200193033B9A46BCE743465A42534103228A
S1130F30D31AC8E742460123002AC4D0404602F02F
S1130F407FF94246431F9A4076235B42181A904623
S1130F500023B8E7032B00D1ADE0012B00D08CE0D7
S1130F605B4654461C40E4B200230025C7E70C232B
S1130F700193093B9A4694E7281C02F061F976260E
S1130F80431F9D4000237642361A01939A4688E710
S1130F9080250024ED03FF23B1E74546CB469A465E
S1130FA0A5E7454693469A46A1E743462C041B0C05
S1130FB09C46230C444626041C1C360C2F0C7443FC
S1130FC0351C66467D4373437743EB18260C9E1904
S1130FD0B54203D980235B029C466744240433044E
S1130FE0240C1B199D016C1EA5419B0E360C2B4332
S1130FF0BD19AD011D432B0104D5012368081D4013
S11310000543081C031C7F33002B2CDD690704D027
S11310100F212940042900D00435290103D52C4B84
S11310201D40031C8033FE2B17DD0124FF231440D5
S1131030002564E78020C003054209D043460342EB
S113104006D1454605436D026D0A4C46FF2356E71B
S113105005436D026D0AFF2351E70124AD016D0ABA
S1131060DBB214404BE77E235B421B1A1B2B07DDCC
S1131070012400231440002541E7081C5A46C1E717
S11310809E30291C8540D940681E85410D436B075D
S113109004D00F232B40042B00D004356B0104D55E
S11310A0012401231440002529E70124AD016D0A20
S11310B01440002323E78023DB031D4301245B4604
S11310C06D0223401C1C6D0AFF2318E7D46A00003C
S11310D0FFFFFFF7F8B54A00430244004D02C00F7A
S11310E0240E061C9B09120EC90FAD09FF2A00D15C
S11310F075E001277940884250D0A01A002800DC0E
S11311008FE0002A1ED1002D00D075E05A0704D0CC
S11311100F221A40042A00D0043380220120D20472
S11311201A403040002A32D00134FF2C00D184E030
S11311309B015B0AE4B25B02E4055B0A2343C0073C
S11311401843F8BDFF2CE1D08022D20415431B289C
S11311507ADD01255B1B5A015DD59B019F09381C73
S113116002F06EF805388740844269DC001B1F24B6
S11311703A1C431C201ADA408740131C7C1EA741EA
S113118000243B43C2E7131E45D100230020DB08A3
S1131190FF2C28D05B025B0AE4B2CCE7A11A002939
S11311A05BDD002A2ED0FF2CB0D08022D204154360
S11311B01B2974DC2F1C2022CF40511A8D40691E3C
S11311C08D413D435B195A0125D50134FF2C74D060
S11311D001217E4A194013405B080B4396E7002D1A
S11311E000D088E785E7002B27D08022D203134361
S11311F05B025B0AFF249EE701380028AAD0FF2C7B
S1131200A5D183E7002D00D180E701390029D9D089
S1131210FF2CCDD17AE75A0700D079E7012030407E
S1131220B5E7002825D1621CD2B2012A55DD5F1B27
S11312307A012DD5EF1A0E1C91E7FF2400237AE7DB
S1131240624B241A3B4061E7291C2022C140101A3A
S11312508540681E85410D437CE7002946D1621C08
S1131260D1B201292BDDFF2A26D0EB185B08141C10
S11312704CE7002C15D0FF2A1AD08024E404404205
S113128023431B284DDD0123EB1A141C0E1C62E7BB
S1131290002F00D063E700230020002477E7012516
S11312A090E7002B39D0C0430028EDD0FF2AE8D1C5
S11312B02B1CFF240E1C29E7FF24002367E7002CC6
S11312C05AD1002B7FD0002D00D11FE75B195A01A2
S11312D0A1D53E4A0134134018E7002C15D1002B48
S11312E02FD1002D5ED02B1C0E1C0FE7002C21D11A
S11312F0002B54D0C943002904D0FF2A4CD01B2909
S113130058DD01235B19141C5DE7002B23D1002D4C
S11313104BD02B1C0E1CFF24F8E62B1C141C0E1C9B
S1131320F4E61E1C2024C640201A8340581E834124
S11313303343A9E7FF2A2FD08024E40449422343FE
S1131340DDE7002D00D1E1E65A1B500100D41AE775
S1131350EB1A0E1CDAE6FF24002D00D1D6E680221B
S1131360DB08D203134204D0ED08154201D12B1C33
S11313700E1CDB00FF24C9E6002B0DD0FF24002D3A
S113138000D1C3E68022DB08D2031342F1D0ED087A
S11313901542EED12B1CECE72B1CFF24B6E62B1CCC
S11313A0141CB3E6231C0020F1E6802300209B04D8
S11313B0FF24ECE61F1C2024CF40611A8B40591EE9
S11313C08B413B439EE72B1CA0E6C046FFFFFFFB7F
S11313D04202510A4200C30F120E00207E2A0DDD84
S11313E09D2A0CDC802000040143952A0ADC962007
S11313F0821AD1400A1C58424240D0187047034A0E
S11314009818FBE7963A91400A1CF4E7FFFFFF7F28
S113141070B5041E39D0C50F00D04442201C01F021
S11314200FFF9E23261C1B1A962B07DC082801DDC0
S1131430083884406402640AD8B21EE0992B0ADD9D
S11314400522211C121AD1400A1C011C1B318E409A
S1131450711E8E411643052801DD421F96400F4C34
S11314603440720704D00F221640042E00D00434F6
S113147062010ED4A401640AD8B26402C005640AED
S1131480ED0704432C43201C70BD002500200024DC
S1131490F3E7024B1C409F231B1AEBE7FFFFFFFB04
S11314A0F0B5454657464E4694464C000A03C90FCC
S11314B0E0B488460E1C1903470FC500480A61466C
S11314C0490F01436046520A1743C0005A00640D95
S11314D0520DDB0F8446984500D1A7E0A01A0028DE
S11314E000DC01E1002A3DD163460B4300D0D4E087
S11314F06B0700D188E00F232B40042B00D183E03D
S11315002A1DAA42AD4180236D427F191B043B4032
S11315104646151C002B00D17CE0CC4B01349C4288
S113152000D1FDE03A1CCA4BED081A40500764058F
S113153052020543120B640D002112030B0D1B050F
S11315406405120B1A436308C24CF60714401C438B
S1131550640064083443281C211C1CBC9046994632
S1131560A246F0BDB94B9C42C2D080231B04194350
S1131570382800DDECE01F2800DD21E120220E1CCC
S11315806346121A9640C340334366469640321C63
S1131590561EB24113430A1CC240EB1A9D42B64187
S11315A01D1CBA1A7642971B3B0200D497E07A02BC
S11315B0560A002E00D1B6E0301C01F041FE031C97
S11315C0083B1F2B00DDB7E09E40371C28262A1C51
S11315D0361AF240161C9D403E439C4200DDB2E0A8
S11315E01C1B621C1F2A00DDD8E01F23291C1C1BA6
S11315F0331CA540A340D1406C1EA541D6401943DD
S11316000D43371C002473E780231B043B404646EC
S113161000D082E78D4BED0878070543FA089C4219
S113162032D012036405120B640D85E7A31A002B54
S113163000DC94E0002A3CD0844A944200D157E76D
S1131640802212041143382B00DC05E16346194360
S1131650481E81410022C8B24019A8429B41051C82
S1131660D2195B42D7183B0239D5784B01349C42DE
S113167000D14CE10120764A6B083A4028401843D7
S1131680D5070543570833E72B1C134348D0802361
S11316901B031A431203120B4EE70138002878D1BA
S11316A06346EE1AB5429B417A1A5B42D71A351C3F
S11316B07AE7021C0A4300D11AE7013B002B00D051
S11316C0F2E04019A8429B41CA195B42D718051C95
S11316D0C9E7131C334300D118E1171C351C4646D7
S11316E06B0700D007E795E700287AD1621C520502
S11316F0520D012A00DCFBE06246AA1A9542B6416B
S11317009146781A7242861A320200D493E06246F5
S1131710551BAC458041CF1B40423E1A984648E7D2
S11317200022002508E7281C01F08AFD2030031C54
S1131730083B1F2B00DC47E7283885402E1C00257A
S11317409C4200DC4CE7424AE41A1640371CCFE6C0
S1131750634619434B1E99410022CBB21DE7002B6F
S113176000D0F2E0601C43055B0D012B00DCA4E01B
S1131770364B984200D121E163465C19AC429B414F
S1131780CF195B42FA186408D50725435708041C8F
S1131790AEE62E4B9C4200D0EAE6A9E6211C331C9F
S11317A01F39CB40191C202A00D182E03F231C1B87
S11317B0A64035436E1EB54100270D4300248EE735
S11317C0031C0E1C203BDE40202874D040231B1A2F
S11317D099400B1C62461343591E8B41002233432C
S11317E0DBE6002C50D0194CA24200D1A8E08024A2
S11317F0240440422743382800DDD9E01F2800DDB7
S113180039E120243E1C241AA640B0462E1CA146D1
S1131810C640444626434C46A5406C1EA541C740DD
S113182035436046451BCF1BAC45894149427F1A6D
S1131830141C9846B8E64B464D46334300D0B8E6F0
S11318400026002700240025E4E6C046FF07000028
S1131850FFFF7FFFFFFF0F801F2B5BDC2022081C94
S1131860D21A9040814660469246D8404A46104378
S11318708146524660469040021C501E82414846B2
S113188010430A1CDA40E7E63C1C2C4358D0C04302
S1131890002851D16046451BAC458041CF1B4042D6
S11318A03F1A141C98467FE68F4A944200D0CAE639
S11318B01EE600267DE700238CE73B1C2B43002C0F
S11318C000D0BDE0002B00D1F5E063460B4300D10E
S11318D00EE663465B19AB428041CA1940421718B1
S11318E03A0200D4FCE0814A1D1C17400134FFE594
S11318F03A1C2A43002C51D1002A00D085E06246CC
S11319000A4303D00F1C65469846F1E500260027DC
S113191000257FE6181C0A1C2038C240202B00D169
S1131920A7E04020C01A8140081C63461843411EAA
S11319308841104300228FE66B4CA24200D05AE744
S11319400F1C6546141C9846D2E5002C3AD1381C6D
S1131950284371D0DB43002B18D0634882426BD0FC
S1131960382B00DD9DE01F2B00DDA7E020203C1C70
S1131970C01A8440A1462C1C8246DC4048460443DD
S113198050468540681E8541DF40254365446545D2
S11319909B417F185B42FF18141C64E6002A19D18E
S11319A062460A4377D00F1C654698464E4C9FE525
S11319B03D436F1EBD410027EDB232E7041C0027F2
S11319C0002527E64848824236D0802000045B4246
S11319D00743C5E762460A4349D08024ED087807E7
S11319E0FA0824032843224209D0CE08264206D10D
S11319F062464F07381CD20810439846321CD20066
S1131A00470F1743C500384C72E562460A4300D1BC
S1131A106EE56246AE1AB5429241781A5242821A73
S1131A20100200D455E66246551BAC458041CA1BE2
S1131A304042171A98465BE50F1C6546141C57E58F
S1131A40002B34D063460B4311D08024ED08780773
S1131A50FA08240328432242D1D0CB082342CED112
S1131A6062464F07381CD20810431A1CC7E71E4CA5
S1131A703EE5002059E7041C3E1C203CE640341C93
S1131A8020282BD04026301A87403D436F1EBD418D
S1131A9000272543C5E680270026FF03124C0025B6
S1131AA0B8E53D436F1EBD410027EDB26EE70F1C44
S1131AB065460D4C1CE50F1C654619E51C1C381CBD
S1131AC0203CE040041C202B0CD04020C31A9F4033
S1131AD03D436F1EBD410027254357E70027D4E748
S1131AE01D1CFCE50027F3E7FF070000FFFF7FFF55
S1131AF0F0B55F4656464D464446F0B40F0387B0F2
S1131B0098464D003B0BCC0F061C924681469B46E3
S1131B106D0D01946BD0664B9D4235D080275B469A
S1131B207F031F43F3009946624BFF00400F9C461E
S1131B3007430023BB46002665440093424617032F
S1131B405000D20F53463F0B400D904600D172E037
S1131B50574A904267D080235B031F435346554A3C
S1131B605B0FFF001F43944653460021DB00604493
S1131B704246624092462D1A0E430F2E00D9A1E030
S1131B804D48B600805987465B461E4300D076E038
S1131B9000239B469946023308260093CEE79946D4
S1131BA04346BB4601930091009B022B6BD1019BE2
S1131BB09A46002153460122002789461A403C4B8D
S1131BC000213F030C0D24053F0B27433B4C1B0511
S1131BD027401F437F00D2077F0817434846391C1C
S1131BE007B03CBC90469946A246AB46F0BD0343C1
S1131BF03ED05B46002B00D19CE1584601F020FB0F
S1131C002823311C1B1A021C5F46D940083A97400E
S1131C100B1C96403B439B46B1460023284D0026AF
S1131C202D1A00938AE7524603213A43A0D1002794
S1131C30002302219CE752463A4315D0002F00D1DD
S1131C4085E1381C01F0FCFA021C28215046891A4F
S1131C50131CC8405146083B99409F400B1C074346
S1131C6017480021801A83E70027002301217FE71A
S1131C7000239B4699460133042600935EE7032321
S1131C800C2600935AE7032B00D13CE2012B00D031
S1131C90BFE11A1C019B1A4000210023002789463A
S1131CA08EE700238027994600223F03004B87E7F5
S1131CB0FF07000001FCFFFF146B0000FFFF0F8013
S1131CC00DFCFFFFBB4500D951E100D14CE14A4670
S1131CD0039200225C469046013D180E3F023843B1
S1131CE01B020193030C994603041B0C4946061C72
S1131CF0201C1F1C0093FEF747FC021C7A43029031
S1131D004946201C171CFEF7C5FC039B09041B0C49
S1131D1019438F420CD9029B8919013B8E4200D989
S1131D2052E18F4200D84FE1029B8919023B029392
S1131D30CC1B201C4946FEF727FC009F83464743E3
S1131D404946201CFEF7A6FC039A0B041404240C39
S1131D5023439F420DD95A469B19013A9E4200D90A
S1131D6030E19F4200D82DE10222524294469B1951
S1131D70E344029ADB1B17045A463A439346019CF8
S1131D80170C220C101C04925A4611042204120C43
S1131D90141C090C7C4305924A4341434743611890
S1131DA0100C09188C4203D98020400284466744F1
S1131DB00C0C12040804120C3C198118A34200D222
S1131DC0E5E000D1DFE01F1B43465C1AA0459241C9
S1131DD05242BF1AB74200D10EE1381C4946FEF701
S1131DE0D3FB009B029043434946381C9846FEF7B8
S1131DF051FC230C0F041F43B8450CD9029BBF1997
S1131E00013BBE4200D9FBE0B84500D8F8E0029B94
S1131E10BF19023B02934346FF1A4946381CFEF79A
S1131E20B3FB009B039043434946381C9846FEF796
S1131E3031FC24040904240C214388450CD9039B58
S1131E408919013B8E4200D9DCE0884500D8D9E0ED
S1131E50039B8919023B03934346C91A029B039AC5
S1131E601B04059C1A43100C13049146221C049F66
S1131E701B0C5A4344437B437843E318170CDB1988
S1131E809C4203D980246402A44660441C0C1204BE
S1131E901B04120C00199B18814200D296E000D159
S1131EA0FCE04A4601231A4391469B4BEB18002B56
S1131EB000DC99E04A4652070AD00F2249460A40FC
S1131EC0042A05D00431494592418946524293443B
S1131ED05A46D20106D55A46904B1A40802393465F
S1131EE0DB00EB188E4A934200DD62E64A4659460F
S1131EF0D208490711435A468946570251460122DE
S1131F005B053F0B5B0D0A405AE680205A460003EE
S1131F10024208D0074206D107433F0399463F0BCC
S1131F204246804B4CE65F4607433F033F0B221C6F
S1131F307C4B45E601F084F9031C2030272800DCA3
S1131F405EE6083B9E400023B346994665E650464C
S1131F5001F076F9021C2032272A00DC75E6574688
S1131F600838874000237BE6994500D2AFE65A46FD
S1131F70594654084A46C8075208024303924A463F
S1131F80D2079046A9E60027884500D31CE7019FA5
S1131F905A46BC46E044B845BF417F42BF19FF18CA
S1131FA0013ABE4206D2BC425FD800D19FE03F1B3B
S1131FB0934609E7B742FAD1019B4345F3D9371B4E
S1131FC0934601E79346D4E60293B1E64A4689195B
S1131FD0013A8E4218D99146814200D061E7019AB4
S1131FE09A4200D05DE760E74F4F7F1B382F13DD27
S1131FF0012253461A404FE601235B42994654E7B7
S1132000029308E7039327E788423CD874D09146AB
S113201047E7019B9A4648E71F2F44DC434B4A4657
S11320209C465B466544FA40AB4013434A46AA408B
S1132030151C6A1E95415A46FA402B43171C5A0731
S113204009D00F221A40042A05D01A1D9A429B4136
S11320505B42FF18131C3A023ED55346012200216D
S11320601A40002701238946AAE502235B429C46C5
S1132070019AE3449446E04490459B415B429B199A
S1132080DF193F1BA0E6019F4A467C00BC42BF41CA
S11320907F42BF19023AC91901949CE7002B95D1DC
S11320A0002201929BE75A46214B5B1BDA40202F0A
S11320B027D0204B9C465B466544AB4049460B43C6
S11320C0591E8B411343072200271A4007D00F22C1
S11320D000271A40042AB8D17A077F023F0BDB0895
S11320E013439946012253461A40002368E54145AB
S11320F0BBD89346002767E6019C9C42C3D3914614
S11321006DE70023DAE780275B463F031F433F0365
S11321103F0B019A034B53E5FF030000FFFFFFFE53
S1132120FE070000FF07000002FCFFFF1E04000082
S1132130E2FBFFFF3E040000F0B55F464D46444617
S11321405646F0B41F035C00DB0F99461B4B0E038D
S11321504D00C90F8446360B6D0D8B4690463F0BE0
S1132160640D9D420CD0154B9C4210D00123A54216
S113217014D0181C3CBC90469946A246AB46F0BD10
S1132180311C01230143F4D10C4B9C42EED13A4360
S11321900123002AEDD10123A542EAD1BE42E8D1B0
S11321A0C445E6D1CB4506D0002DE2D13043031C13
S11321B0581E8341DDE70023DBE7C046FF0700002C
S11321C0F0B5574645464E46E0B40F034E00C90FDE
S11321D08A4632491D035C0084463F0B760D9046C7
S11321E02D0B640DDB0F8E420FD08C4239D0002EA4
S11321F010D13843414241418946002C27D12A431A
S113220025D1002000290ED108E0391C01432ED12C
S1132210B44226D0002C0BD09A450DD053465942D7
S113222001231943081C1CBC90469946A246F0BDE4
S11322302A43F3D09A45F1D1A642EFDC1ADA50468C
S113224041424841012341421943081CEBE74A46F5
S1132250002AE1D058425841012241421143081C4E
S1132260E1E7291C114302D1002EC2D0D4E7022099
S11322704042D8E7AF42D1D809D00020AF42D2D2F1
S1132280504641424841012340421843CBE7C445EC
S1132290C4D80020C445F3D3C5E7C046FF070000F7
S11322A0F0B55F464D46444656468046F0B4061C9B
S11322B00803000B84462C484C001F035D00C90F23
S11322C0640D8B4691463F0B6D0DDB0F844212D09B
S11322D0854225D0002C14D161460E4370424641FC
S11322E0002D35D0002E21D05842584101214342BF
S11322F00B43181C0EE06146022031430AD1A5426B
S11323000ED0002D12D13A4310D15B46594201231D
S11323101943081C3CBC90469946A246AB46F0BD06
S1132320391C02201143F5D1002CD5D09B45ECD1AA
S1132330AC42EADC05DBBC45E7D80FD00020BC4545
S1132340E8D2584641424841414201200843E1E76E
S11323503A43C7D10020002EDCD1D6E7C845D4D8F3
S11323600020C845EDD3D5E7FF070000F0B55F4670
S113237056464D464446F0B4051C061C080387B077
S113238099464F00030BCC0F92469B467F0D019458
S113239067D06C4B9F4236D080205B464003184385
S11323A0C0006B0F1843684B83469C460023984635
S11323B0EE00674400934B4649461D03C90F5B007A
S11323C052462D0B5B0D894600D16EE05D498B4270
S11323D064D080205C4940038C4600210543ED0015
S11323E0500F0543D20063444846FF187B1C9A46AD
S11323F0009B604002900B430F2B00D9ACE0534884
S11324009B00C3589F465B461D4300D082E00823CF
S1132410009300239B46023300269846CBE7029B99
S113242001934346022B59D1012400250026019B28
S11324301C40444B00212D030A0D12052D0B15439E
S1132440434A1B0515401D436D00E4076D082543F1
S1132450301C291C07B03CBC90469946A246AB46AA
S1132460F0BD2B434ED05B46002B00D185E158468E
S113247000F0E6FE021C2823291C9B1A161C584651
S1132480D940083EB0400B1CB54003439B462E1C6C
S11324900023304F0093BF1A98468CE751462943D6
S11324A02ED10025002202219EE75146294323D044
S11324B0002D00D154E1281C00F0C2FE031C282189
S11324C05046C91A1A1CC8405146083A91409540D2
S11324D00A1C05431F480021C31A85E7032B00D1BA
S11324E0C2E1012B00D06DE14446019B00251C4054
S11324F0E4B2002300269DE700250022012173E7B2
S1132500032171E70423009300239B460133002633
S1132510984650E70C230093093B98464BE78025E7
S113252000242D030026074B84E74B46AB46161CBC
S11325300193884675E7029BAB46161C01938846B7
S11325406FE7C046FF07000001FCFFFF546B00006B
S1132550FFFF0F800DFCFFFF330C3604360C9C4646
S1132560331C140C1204120C534398466346534311
S11325709946634663430193331C41466343090C04
S11325804B445B18994505D9802040028146019946
S113259049440191190C039141460904090C1B0497
S11325A05B1804932B0C9846331C2D04290C4B43C5
S11325B0604600934346654658435E43009B4D4343
S11325C01B0C9946AE194E448446B54203D9802368
S11325D05B029946CC44350C2B1C03986344844617
S11325E00593009B36041B041B0CF3189C446046A3
S11325F0039058460504060C280C84465043351CA9
S113260081466046654344434846000C8346724312
S113261014195C44A24203D98022520293465D44B9
S1132620220CAD184A461204120C24044046A41885
S113263062464A43714346436046009646467043A9
S11326408046100C84468844E044414505D98021E5
S113265049028C460099614400910198039984468B
S1132660614499429B415B4299460598434684469E
S11326701204120C1B049B1863449C46AB46834211
S11326809B4140460A19CC44A2428941E344CC45CB
S1132690B6415C46000C8046494276425B4264186F
S11326A0334398448C428941AB459B4149425B4248
S11326B019430D1C009B4544EE187602E50D2E438C
S11326C0B346049B56021E43731E9E415B46D20DC5
S11326D0324366021643DB010AD5012333407608F0
S11326E01E435B46DB071E435B465B089B4657461F
S11326F0634BFB18002B5ADD720709D00F223240BE
S1132700042A05D0321DB242B6417642B344161CA7
S11327105A46D20106D55A465A4B1A40802393464C
S1132720DB00FB18584A934234DD0124029B002548
S11327301C400026554B7DE680205B460003034287
S113274008D0054206D105432D032D0B4C46161C1B
S11327504E4B6FE65D4605432D032D0B4B4B69E64F
S1132760504600F06DFD031C2033272B00DCA6E649
S11327705546083885400022ACE6281C00F060FD70
S1132780021C2032272A00DC75E608388540002622
S1132790AB467DE65A46F608520716435A460124CC
S11327A05502029A5B052D0B5B0D144042E6384D31
S11327B0ED1B382D0ADD0124029B00251C40002658
S11327C0002337E6019B5746029391E71F2D25DC32
S11327D0304B321C9C466744BE405B46BB40371CB2
S11327E0EA407E1EB74113433B431E1C5B46EB404D
S11327F01D1C730709D00F233340042B05D0331D50
S1132800B342B6417642AD191E1C2B0220D50124D9
S1132810029B00251C40002601230BE65A461E4B52
S1132820DB1BDA40131C202D1CD01C4A94465A464C
S11328306744BA40171C3E43721E96411E43072349
S11328400025334007D00F2300253340042BD6D175
S11328506B076D022D0B0124F6081E43029B1C40DE
S11328600023E7E50027E6E780255B4601242D03E6
S11328701D43019B2D0323401C1C2D0B034BD9E549
S1132880FF030000FFFFFFFEFE070000FF0700003C
S113289002FCFFFF1E040000E2FBFFFF3E040000F9
S11328A0F0B54D4644465F465646F0B40E1C111C26
S11328B03203520A470F1743C5001A035800DB0FAF
S11328C09946520A4B0F83B01A43CB000193CF4B66
S11328D07400F60F640DB046400D984200D1E8E054
S11328E00123494659400B1C9E4200D1B1E0261AEF
S11328F0002E00DC1CE1002842D1131C01990B437B
S113290000D0E6E06B0700D18EE00F232B40042BB0
S113291000D189E02A1DAA42AD4180230126414607
S11329206D427F191B043B400E40151C002B00D147
S113293083E0B64B01349C4200D116E13A1CB44BFF
S1132940ED081A405007640552020543120B640D4A
S1132950002112030B0D1B056405120B1A436308B7
S1132960AC4CF60714401C43640064083443281C30
S1132970211C03B03CBC90469946A246AB46F0BD30
S1132980A24B9C42BED080231B041A43382E00DD88
S113299003E11F2E00DD3FE12020831B9946131C19
S11329A049468B409C46019B6046F3400343019893
S11329B0F2408840011C481E81410B43EB1A9D42A2
S11329C080411D1CBA1A4042171A3B0200D4A8E0E9
S11329D07A02560A002E00D1CAE0301C00F030FC06
S11329E0031C083B1F2B00DDCBE02822291C121AF4
S11329F0D1409E400A1C9D4032439C4200DDC8E009
S1132A001C1B671C1F2F00DDEDE01F23291C1C1B52
S1132A10131CA540A340F9406C1EA541FA4019437C
S1132A200D43171C00246DE78023012642461B0436
S1132A303B401640002B00D07BE7744BED08780731
S1132A400543FA089C423BD012036405120B640D43
S1132A507EE7231A9A46002B00DCA5E0002844D028
S1132A606A48844200D14DE7802000040243534663
S1132A70382B00DC1CE1019B1A43511E8A41D1B260
S1132A8000224919A94280410D1CD219404217184D
S1132A903B0246D55D4B01349C4200D169E10120E3
S1132AA05B4A6B083A4028401843D507054357084A
S1132AB028E7131C01990B4300D111E74B4613E798
S1132AC02B1C134351D080231B031A431203120BF4
S1132AD03EE7013E002E00D080E0691A8D429B4102
S1132AE0BA1A5B42D71A0D1C6FE7101C019B1843DE
S1132AF000D107E701235B429C46E2445346002B86
S1132B0000D002E1019BD2195919A9429B415B42B1
S1132B10D7180D1CBCE76346034300D128E1071C0A
S1132B2065466B0700D0F0E6012643461E4084E765
S1132B30002E00D081E0601C4005400D012800DC1F
S1132B4007E10199681A84466545B641B81A764288
S1132B50861B300200D4A1E08C464D1BAC45894154
S1132B60D21B4942561A984634E700220025EFE664
S1132B70281C00F065FB2030031C083B1F2B00DCE5
S1132B8033E7021C283A95402A1C00259C4200DCAD
S1132B9036E71F4FE41A1740B4E6019B1A43511E4F
S1132BA08A41D3B2002209E7002B00D001E1601C66
S1132BB043055B0D012B00DCB0E0144B984200D1BF
S1132BC01EE1019BD2195919A9429B415B42D218BB
S1132BD04908D5070D435708041C93E60B4B9C4248
S1132BE000D0D3E68EE6211C131C1F39CB40191CE0
S1132BF0202F00D18EE03F231C1BA24015436A1EE8
S1132C00954100270D4300248BE7C046FF070000D1
S1132C10FFFF7FFFFFFF0F80331C101C203BD840B9
S1132C20202E79D040239B1B9A40131C019A1343F6
S1132C30591E8B4100220343C0E6002C53D0C74CDD
S1132C40A04200D1B0E08024714289462404274385
S1132C504946382900DDCDE01F2900DD59E1202453
S1132C603E1C611A8E408A46B04649462E1CCE4010
S1132C705146B4468D4064464646494626436C1E3A
S1132C80A541CF4035430199D71B8C464D1BAC451C
S1132C9092415242BF1A041C984696E66346654622
S1132CA0334300D096E60026002700240025C4E61E
S1132CB01F2B61DC2020C31A9B46131C59468B40F2
S1132CC051469946019BCB409C464B466046034384
S1132CD09C465B46019999406346481E81411943CD
S1132CE05346DA40CDE63C1C2C435DD0F143894683
S1132CF0002955D10199D21B8C464D1BAC45894105
S1132D004942571A041C98465FE69448844200D00E
S1132D10ADE6F7E5002271E7002387E73B1C2B4370
S1132D20002C00D0DAE0002B00D113E1131C019930
S1132D300B4300D1E6E54919A9429B41D2195B42F4
S1132D40D7183B0200D421E1854B0D1C1F40041C05
S1132D50D8E5381C2843002C40D1002800D083E05B
S1132D60101C0199084303D0171C0D1C9846C9E593
S1132D7000260027002560E65046131C2038C34077
S1132D80181C5346202B00D1C1E0402351465B1A46
S1132D909A40019911434A1E91410022014370E671
S1132DA06E4CA04200D053E7171C019D041C9846AA
S1132DB0A8E5002C28D13C1C2C4300D18AE0DB433D
S1132DC09A46002B00D082E0019BD2199C466544B0
S1132DD09D42894149425718041C59E600285BD199
S1132DE0101C0199084300D1A4E0171C0D1C98463F
S1132DF05A4C87E53D436F1EBD410027EDB242E7C3
S1132E00041C0027002518E6544CA04262D0534607
S1132E1080245B429A46240427435346382B00DD22
S1132E208EE01F2B00DD9DE02024E31A9B463B1C13
S1132E3059468B40514699462B1CCB409C464B46E9
S1132E40644623439C465B469D4063466C1EA541F5
S1132E50CF401D43019BBF189C4665449D4292414F
S1132E605242BF18041C13E6101C0199084300D1F8
S1132E7048E5681A844685428041BE1A4042301AA9
S1132E80060200D447E68C464D1BAC458941D21B53
S1132E904942571A984635E5101C0199084334D025
S1132EA080247807ED08FF0824032843274208D02C
S1132EB0D608264205D1C90852070A43101C371CFC
S1132EC09846FF00420F1743C500244C1AE5234CD3
S1132ED0A042A2D1171C019D041C13E5002B35D080
S1132EE0131C01990B4310D080247807ED08FF08C8
S1132EF0240328432742E4D0D3082342E1D1C9085C
S1132F0052070A43101C1F1CDBE7144CFAE400228E
S1132F103FE74C463E1C203CE6404946341C2029F1
S1132F2032D04026761AB7403D436F1EBD4100277C
S1132F302543A8E680270026FF03084C00257CE5EE
S1132F403D436F1EBD410027EDB283E7171C019D71
S1132F50024CD7E4171C019DD4E4C046FF070000CF
S1132F60FFFF7FFF54463B1C203CE3401C1C5346A0
S1132F70202B0DD0402351465B1A9F403D436F1ECA
S1132F80BD410027254365E70027CDE70D1CC8E5B3
S1132F900027F3E70B0330B5134C1A0B4B00051C49
S1132FA05B0DC90F0020A34210DD104883420EDCE4
S1132FB080200F4C40030243E41A1F2C0ADD0D4805
S1132FC0C31ADA40131C48424340581830BD0A4B18
S1132FD0C818FBE7281CE040084CA44663449A4008
S1132FE0131C0343EFE7C046FE0300001D0400006A
S1132FF03304000013040000FFFFFF7FEDFBFFFF1D
S113300038B5041E16D0C50F00D04442201C00F071
S113301017F9174B1B1A0A2821DC021C211C153234
S113302091400A1C0B21081AC4405B052403240B9D
S11330305B0D03E000250023002400220021101C66
S113304024030A0D1205240B14430A4A1B051440D9
S11330501C436400ED0764082C43211C38BD0B3865
S113306084405B052403240B5B0D0022E6E7C04685
S11330701E040000FFFF0F804200120E511C38B5E1
S1133080C9B243025D0AC40F012915DDE02189009C
S11330908C466D071B0B62440021281C0D0D2D0569
S11330A02B431C4D52052B40520813435B00E4078D
S11330B05B082343191C38BD002A15D1002D1FD0ED
S11330C0281C00F0BDF80A281DDC0B232A1C1B1A3F
S11330D0DA40131C021C153295400F4A1B03121AC6
S11330E052051B0B520DD7E7002D06D080221B0B77
S11330F0120313436D07094ACEE7084A0023CBE7BE
S113310000220023C8E7031C0B3B9D402B1C002519
S1133110E3E7C046FFFF0F8089030000FF070000BC
S113312070B50B034D00440F6D0D5B0A23436C1CFB
S11331306405C90FC200640D012C2ADD3B4C2C1917
S1133140FE2C1ADC002C35DD8001451EA841DB0075
S11331500343520F13435A0704D00F221A40042A80
S113316000D004338022D2041A4027D00134FF2C2B
S113317003D09B015B0AE4B201E0FF2400235B025D
S1133180E4055B0A23435B00C9075B080B43181C77
S113319070BD002D06D113430ED100245B025B0ADF
S11331A0E4B2ECE71A43E8D08020DB008004034358
S11331B0FF24D0E717340CDA05230024DB08FF2CA6
S11331C0ECD1002B2DD08022D20313435B025B0A87
S11331D0D5E78024164824042343401B1F280DDC14
S11331E0144CA4466544AB401C1C131CAB405D1E30
S11331F0AB41C240234313430024ACE71E1C0E4CD6
S1133200641BE640341C20280DD00C4884466544D9
S1133210AB401D1C2A43531E9A41131C2343002414
S113322099E70023ABE70025F4E7C04680FCFFFFE5
S11332309E03000082FCFFFF7E030000A2FCFFFF50
S11332401C2101231B04984201D3000C10391B0AD2
S1133250984201D3000A08391B09984201D3000996
S1133260043902A2105C40187047C04604030202ED
S113327001010101000000000000000008B50A4B34
S11332801A68002A01D1094A1A601A6808491018F4
S1133290884206D903F0C4F90C230360012040429C
S11332A001E01860101C08BDB8FFFF1FC802002011
S11332B0C802002002238078834280414042704744
S11332C0437A0020013B012B03D901200B78013301
S11332D00B70704708B5002002F034FB002803D0BF
S11332E00020011C02F022FB08BD0000024A136802
S11332F0013313607047C046E0FFFF1F08B500208C
S113330001F02EFA8023054A9B001360044A002032
S11333101360044901F094FD08BDC0460CA0145488
S113332010A01454BCFFFF1F08B5002001F0C4FD19
S113333080238220074A5B001360074A4000136021
S113334001F09EFC0420FF3001F09AFC002001F003
S11333500CFA08BD0CA0145410A0145408B5002392
S1133360394A3A4913603A4A13603A4A0133FF33FF
S11333701360394A1360394A1360394A1360394A71
S11333801360394A1360394A1360012208780240F5
S1133390081C3749002A01D00B6000E00A60354A56
S11333A03549136000220A6034490A60344A1360C4
S11333B0344A1360344A1360344A1360344A136045
S11333C0344A13600378DB0703D50220FF3001F091
S11333D049FC8520400001F053FC092001F050FC19
S11333E00C2001F04DFC052001F04AFC082001F0FE
S11333F047FC0620FF3001F043FC0E20FF3001F0B3
S11334003FFC8320400001F03BFC0820FF3001F02A
S113341037FC0C20FF3001F025FC8120400001F036
S113342021FC8220400001F02BFC0420FF3001F03D
S113343027FC072001F024FC062001F021FC802059
S1133440400001F01DFC08BD0C90145408FEFF1F41
S11334501090145414901454189014541C90145430
S113346020901454249014543090145400A01454F4
S113347004A0145408A014540CA0145410A0145400
S113348014A0145418A014541CA0145428A01454A8
S11334902CA0145434A0145408B5092001F0F0FBF6
S11334A008BD08B50C2001F0EBFB08BD08B5FFF71B
S11334B0F3FFFFF7F6FF8320400001F0D3FB08BDC4
S11334C0F0B5B3B021AC00210722201C03F01BF996
S11334D0F54A01262692032211AB299313AB2A93B2
S11334E015AB2C9319AB2E931BAB2F931DAB3093C1
S11334F01FAB319326AB17AF1A7100200FAA289285
S113350010932D9726702B9401F022F9301C01F0B2
S11335101FF98022E54B12021A6000F069FF0020B7
S11335200096021C031C011C00F0CCFBE0490020A7
S113353000F0BCFBFA20400000F03CFFDD49002015
S113354000F0B4FBFA20400000F034FFDA49002018
S113355000F0ACFBFA20400000F02CFFD74A331CEB
S11335600221D74800F068FF311C301C00F070FFC6
S1133570002002F023F90025FC2323A9DB00281CEA
S11335800B804E808E80CD800D818D7202F044F9C7
S1133590291C321C0FA803F0B6F82A20219B0CA981
S11335A01593A2880A85A27909180A7024210CAA05
S11335B05218213911701793A2880CA9BA80A279E4
S11335C00838BA7105223A7002271193A2880A8337
S11335D0A2790F758A761393A2880A84A2790918AE
S11335E00A7004220CA90A771993A28818300A8752
S11335F0A27909180A70082206380CA909180A7059
S11336001B93A2880C300CA909180A80C019A2794E
S11336100CA909180A70092106380CAA121811708D
S11336201D93A3880C300CAA12181380A379C01917
S11336300CAA121813700A2306380CAA1218137055
S11336404C220CAB9B181D7010AA331C29A801F046
S1133650D5F8291C381C00F0DFF99A499A4801F082
S1133660E5FAFFF77BFE0820FF3001F0FBFAFA20B1
S1133670400000F09FFE0820FF3001F001FBFA201B
S1133680400000F097FE0820FF3001F0EBFAFA202A
S1133690400000F08FFE0820FF3001F0F1FAFA201C
S11336A0400000F087FE0820FF3001F0DBFAFA202A
S11336B0400000F07FFE0820FF3001F0E1FA4020D6
S11336C0824900F083FD8249682000F084FD81482E
S11336D000F018FAFFF7EAFE7F49281C00F0E6FA2A
S11336E0FA20800000F066FE7C49281C00F0DEFA17
S11336F07B49281C00F0DAFA80200002FFF7FEFD67
S113370002F078FF00230595039307930A93069329
S113371004937449059A002000F0C2FC3B2000F099
S11337205FFD041C3C2000F05BFD08903D2000F090
S113373057FD0B903E2000F053FD0C903F2000F00D
S11337404FFD0D90402000F04BFD071C432000F07E
S113375047FD051C442000F043FD061C452000F0F5
S11337603FFD462000F03CFD472000F039FD482095
S113377000F036FD0B9B0C9A1B02134308990D9A1B
S11337802402214314028022280206432743B0B2B4
S11337908EB29BB2BCB21202964201D9524976183B
S11337A01D1E954201D9504BED18944201D94E4B40
S11337B0E418904201D94C4BC018FA239B0058439B
S11337C04A49FCF771FF071C49493A1C002000F0E4
S11337D067FC301C644370430019FFF711FC02F0CE
S11337E009FB089009916842FFF70AFC089A099BB3
S11337F002F0FCFA6D43089009912819FFF700FCC8
S113380002F0F8FA041C0D1C301CFFF7F9FB221C13
S11338102B1C02F0EBFA381CFDF7FAFD3549FDF7D5
S1133820EFF90499FDF756FC3349FDF721FB011C20
S11338300698FDF769F8304906900A98FDF718FBD9
S11338400399041CFDF746FC0799FDF743FC2B493B
S1133850FDF75AF82849FDF70BFB211C051C0398BA
S1133860FDF738FC211C061C0798FDF733FC24499E
S113387007900A98FDF748F80A9008980999FFF705
S11338804FFCFFF7F9FB1F4A1F4BFEF76FFDFFF7D5
S113389047FC0699FDF71EFC1C49071C281CFDF774
S11338A033F8041C211C33E0C13200002002002044
S11338B00D6D0000286D00002E6D000004FEFF1F3A
S11338C018FFFF1F28FEFF1F18FEFF1FF0FFFF1F3A
S11338D0E4FFFF1FFCFFFF1F356D00004C6D00006F
S11338E0626D0000786D00000100FFFF1F050000FD
S11338F0886D00000000C842F0A7063F6F12833AAB
S1133900E5D4CE3A9A99999999994C408FC2F53C4D
S1133910281CFDF775F9211C03900798FDF770F931
S1133920391C041C0398FDF7A3FA011C0698FCF744
S1133930EBFF391C0690201CFDF79AFA011C049831
S1133940FCF7E2FF311C04900398FDF791FA011C87
S1133950301CFDF7BFFB291C0390201CFDF788FADF
S1133960011C0798FDF7B6FB311C0790201CFDF7DE
S11339707FFA011C0A98FDF7ADFB124A124B0A901C
S113398008980999FEF7F2FCFFF704FB051C06985A
S1133990FDF71EFD041C0498FDF71AFD2A1C009077
S11339A0231C0020094900F07BFB059B0133059390
S11339B01A1CFA239B009A4200D0AAE6FFF7B4FC33
S11339C0FEE7C0469A99999999994C40A06D0000D8
S11339D01FB5041C01A9002001F046FF01A8694697
S11339E001F080FE009B68461C1901A9009401F0B7
S11339F001FE01A90122002001F062FF1FBD0000A9
S1133A000022034B1A608022024B1206DA677047C9
S1133A1000A01C5804E100E010B50A2308286FD860
S1133A200C1CFCF7A7FD051B283C48626466570084
S1133A3001F07AF80523012862D0FFF7E1FF201C8A
S1133A40FFF7C6FF0020011C00F0FCFE041C002050
S1133A50012100F0FDFC002C4FD150E001F064F88E
S1133A60062301284CD0FFF7CBFF201CFFF7B0FF43
S1133A7001200021E8E701F057F8082301283FD08E
S1133A8000F06EFD002803D00020012100F0E0FCCE
S1133A900220002100F0D6FE00282ED12FE001F0F4
S1133AA043F8072300282BD0FFF7AAFF201CFFF7B9
S1133AB08FFF032005E0FFF7A3FF201CFFF788FF1B
S1133AC00420002100F0BEFE041C01F02DF80028A3
S1133AD0C1D1BDE70820002100F0B4FE00280CD1BC
S1133AE00120011C00F0B4FC09E0052002E00620DE
S1133AF000E00720002100F0A5FE092300E00023D8
S1133B00181C10BDC223FF33436070470269C368A9
S1133B109A4203D880681018013800E0501EC01A79
S1133B207047F7B58368C668051C40680191141C8A
S1133B309F1B8019974203D902F0DCFDA4190AE007
S1133B4001993A1C02F0D6FD019BE41BD91968685F
S1133B50221C02F0CFFDEC60F7BD0023F7B5061C74
S1133B60171CC568019100933369B468AB4200D84F
S1133B701B19013B5B1B641BBC4200D93C1C9C42CF
S1133B8000D91C1C7368221C5819019902F0B2FD5B
S1133B90009B2D191B190093019B3F1B1B190193BB
S1133BA0B368EB1A5A1E93415B421D40F560002F27
S1133BB0DAD10098FEBD0000022310B5104C114A62
S1133BC023616361104BA261E3618023A2640F4A05
S1133BD05B002362E26400231022A3626362E36257
S1133BE0A3656365E3652265E01D094902F044FEAF
S1133BF0201C084902F040FE2023A37110BDC046DA
S1133C001C010020A26E00001C0000200C000020FB
S1133C10AB6E0000AF6E0000F8B51823451C5D4381
S1133C204343141C134A0E1CD018C76A5519012F9C
S1133C300FD0002F07D0022F17D1221C281CFFF70A
S1133C408CFF041C14E0281CFFF760FFA0420ED375
S1133C5005E0281CFFF75AFF844200D9041C281CE5
S1133C60311C221CFFF75DFF02E0002400E03C1C35
S1133C70201CF8BD1C010020F8B50B4B071C1B7859
S1133C800E1C151C002B01D1FFF796FFEFF31084D7
S1133C90012181F31088381C311C2A1CFFF7BCFF5A
S1133CA084F31088F8BDC0461C01002038B5051CFB
S1133CB0081C0C1C02F0E8FD211C021C281CFFF748
S1133CC0DBFF38BDF7B5164C01932378051C0F1C98
S1133CD0161C002B01D1FFF76FFF23699D421CD2F4
S1133CE0EFF31082012181F31088002D0CD01823EA
S1133CF0691C59436B43675061184E600199E3187E
S1133D00196200219962596218235D43089B641962
S1133D10E36282F31088002001E001204042FEBDEE
S1133D201C010020826810B5041C4068531C8342A7
S1133D3005D820688154A360E3680133E360A26876
S1133D4063689A420CD120692168FFF795FFA36844
S1133D50984203D001235B42E36001E00023A360A7
S1133D6010BD0000F0B5051C1F1C081C012685B001
S1133D700A9C00910192019B984204D30199FCF79B
S1133D8003FC0136F7E70296BE4200D202970123F4
S1133D900B9A1A40039218D1002C01D1002414E08C
S1133DA00B9B20269B070DD5002F0BD1103609E065
S1133DB0281C311CFFF7B6FFEB68013C002B04DB29
S1133DC0002CEBD0029BA342F2D3EB68002B35DB33
S1133DD00126012F01D9013F06E00098311CFCF7B0
S1133DE0D3FB019B984208D3019B5E43F1E7301C4F
S1133DF00199FCF7C9FB061E10D00098311CFCF792
S1133E00C3FB331C4343009AD31A00930C4B195C35
S1133E10281CFFF787FFEB68002BE8DA039B002BD5
S1133E200CD0002C0AD0029BA34207D2281C2021CC
S1133E30FFF778FFEB68013C002BF2DA05B0F0BD28
S1133E40B66E0000F0B59FB00EAB099340230A9301
S1133E500023161C06900B930D900C930B784C1CAE
S1133E60002B04D10C9B0393002B22DC15E1252BA2
S1133E7016D1002502314F1E3B782B2B0CD003D8D2
S1133E80232B27D1082308E02D2B03D0302B21D15D
S1133E90022302E0012300E004231D430131EAE789
S1133EA0191C09A8FFF73EFF211C0C9B002BD5DA37
S1133EB0D8E70B9A002A03D006980EA9FFF7DCFE78
S1133EC00C9B03930B9B0493049A039B94466344B7
S1133ED00C93E2E000243A78131C303B092B05D8FC
S1133EE00A235C43303C0137A418F4E7002303930E
S1133EF02E2A0DD101373A78131C303B092B07D8F1
S1133F000A23039901374B43303B9B180393F2E791
S1133F10397804230A1C9A43682A01D10137F7E748
S1133F20642926D008D8582900D195E063291AD0ED
S1133F30252900D0AFE0ABE0732900D195E00DD87E
S1133F40702900D0A7E032680021131D33600823D4
S1133F5001910093116809A8102296E0752971D087
S1133F60782979D097E0336819681A1D3260C9B28C
S1133F708EE033681A1D1B683260DA1798180493B0
S1133F80012350400593092805DD0A21FCF78CFB29
S1133F90059B0133F6E7059B039A934200D20592F1
S1133FA0002C05D0049B002B01DB6B0700D5013CE2
S1133FB0AB0702D5039B002B10D0EB070ED4002CCB
S1133FC001D100240AE0059BA34207D209A82021BD
S1133FD0FFF7A8FE0C9B013C002BF0DA0C9B079327
S1133FE0002B58DB049B002B04DA5B42049309A8E2
S1133FF02D2103E06B0703D52B2109A8FFF792FEBF
S11340000C9B002B47DB03232B40022B11D1039B7A
S1134010002B0ED1002C01D100240AE0059BA34201
S113402007D209A83021FFF77DFE0C9B013C002B31
S1134030F0DA0C9B0593002B2DDB0094019509A865
S1134040049906E03368009401951A1D19683260DA
S113405009A80A22039B18E0336800941A1D0195ED
S1134060326009A819681022F4E733681A1D326017
S11340701C682178013400290DD009A8FFF752FEED
S11340800C9B0393002BF4DA05E0FFF76BFE02E0D0
S113409009A8FFF747FE791C07E70C981FB0F0BD8D
S11340A00EB403B503AB02CB01AA0193FFF7CAFE1A
S11340B002B008BC03B0184708B5002000F0EEFDBC
S11340C008BD08B5002001F059FC08BD082110B551
S11340D0164B9A780A4202D09A780A439A70882238
S11340E000212220124B52019950124A1070802054
S11340F0114A400298501868104A024010481A6049
S11341001C58104A2240C024A40422431A5080227E
S11341100D4B19721A767F3A19705A700B4A117046
S11341200C2299791142FBD110BDC04600D0074042
S11341300070044000E0074044100000FFFFF3FF5C
S113414004100000FFFFFFF000400640005006404E
S1134150154B164810B5191E81420CD00022144B81
S11341609B089B009A4203D084588C500432F9E790
S1134170104B996001E00F4A936000230E4A0F49E7
S1134180891A8B4204D0D45C0D48C4540133F8E737
S113419000230C4A0C49891A8B4204D00024D018FD
S11341A004700133F8E710BD0000000000000000B7
S11341B00000000000ED00E0C07000005C72000030
S11341C000FEFF1F9CFFFF1FC80200208023DB05A9
S11341D008704B607047FC231B0108704B607047EC
S11341E0F0B500248BB002AB1C74294B08AF1B78CC
S11341F007AE3B80274B01251B68059009936B2371
S1134200337006AB0093FA235B000293391C321C13
S11342102B1C0195201C00F075FF6B461B7D391C7F
S1134220337002AB1D7406AB0093FA235B00029358
S1134230321C2B1C0195201C00F064FF164B221C21
S11342400093FA235B0002930195231C201C391C64
S113425000F065FF32780E4BA0420BD10C495B7A1B
S1134260097ADBB200910D49FFF71AFF084B187A5F
S1134270C0B20AE01B7A0A49DBB2201CFFF710FF28
S1134280201C0849FFF712FDFF200BB0F0BDC0460B
S1134290E4FFFF1F00FEFF1FECFFFF1FC66E0000C0
S11342A0DF6E0000F86E000000234170436003706D
S11342B08360181C704710B54378041C0120FF2B41
S11342C008D000F063FA63780133DBB2637000F066
S11342D051FA002010BD0020704738B5041C0D1C95
S11342E000F054FAE1682943E16000F043FA002049
S11342F038BD000000220A4B9A641A1C40329A63AB
S11343001A1C30329A621A1C20329A611A1C10321A
S11343109A60044A1360044B9B60DB607047C0469C
S1134320A8010020A4010020940100200022024BD7
S11343301A60186880B270470C007C5038B5437816
S1134340041C0D1C002B0BD0002500F01FFA637811
S1134350013BDBB26370257000F00CFA281C28E0E6
S11343600220002925D02378002B15D0FFF7DEFF8B
S11343706368A268984201D3C01A03E0C01A80237C
S11343805B02C018824213D200F000FA00232370AB
S113439000F0F0F902200CE04B1C09D000F0F6F913
S11343A00123237000F0E6F9FFF7C0FFA560606009
S11343B0032038BD38B5051CFFF7B8FF041CFFF710
S11343C0B5FFA04201D3001B03E08023001B5B0266
S11343D0C0188542F3D238BD08B5012801D100F0D8
S11343E0D5F908BD08B5012801D100F0C3F908BD0D
S11343F010B5FFF77FFF01230020084A0849136026
S1134400084A094C1060086004212160074C2160AF
S113441007490B6007490860136010BD38800450D9
S113442000008450000004500000045104000451B2
S113443004000C500000045310B5044C206021719A
S11344400020A2602373637310BDC046F8010020EE
S1134450F0B587B06B4602901B7A05AC23706B46AF
S113446003911B7B3D4D63702B79029A0420934288
S113447071D92B7B6B730123A37000230193374EF7
S11344800093337B009A371C93421AD9009BB2687D
S11344909B009B58002B10D01A79D2070DD51A68AF
S11344A0201C99689047002807D06B461B787373CB
S11344B0039B002B3AD005230193009B0133DBB20D
S11344C0DDE7019E002E02D0039B012B2FD101209A
S11344D0FFF782FF0C20029B58432B68181800F04A
S11344E0A7F86B461B7A01206B71FFF77BFF022351
S11344F00025A3703B7BAB4216D9BA68AB009B582E
S1134500002B0ED01A7992070BD51A68201C9968D3
S11345109047002805D0039B7D73002B1AD00623F7
S113452001930135EDB2E5E7019814E00526002377
S1134530009FA370013FFFB2FF2F09D0AA68BB0000
S11345409B58002BF6D01A68201C99689047F1E715
S1134550301C00E0062007B0F0BDC046F801002082
S1134560014B58797047C046F801002013B500216B
S11345700378041C0191022B07D0032B0BD0012BD1
S11345800ED10279191C134801E00279114801ABDC
S113459000F0C4FF08E001A90E4801F001F803E0AF
S11345A00C4801A900F09EFF002812D1A3790A4A01
S11345B0DB01DBB213706378084A5B00DBB2137073
S11345C0A278074B1A70E278064B1A706279064B90
S11345D01A7016BD004006401840865300408650AD
S11345E00040065001400650184016501F228023F8
S11345F002405B05D2051A43034943099B005B183B
S11346001A43002313607047288004401F2280212E
S11346100240D30549051943430904489B001B186C
S113462019430123081C9340036070472880044009
S11346300022072373B5041C104D0093281C131C7F
S1134640012101F08DF9201CFFF790FF0022637A0D
S1134650217A0093281C131C01F082F9E379084A9B
S11346609B041360074BA17A1D68281C00F0B4FF5B
S1134670281CE17A00F0B7FF002076BD00700440EA
S113468000700C59686F000008B5054800F0ECFE96
S1134690044B1968C9B20131FBF776FF08BDC04667
S11346A00040064044801C5E08B5054800F0DCFE6E
S11346B0044B1968C9B20131FBF766FF08BDC04657
S11346C00040064044801C5E08B5054800F0CCFE5E
S11346D0044B1968C9B20131FBF756FF08BDC04647
S11346E0004006404480145808B5054800F0BCFE5C
S11346F0044B1968C9B20131FBF746FF08BDC04637
S113470000400640448014580C4B1B68DBB2022B5B
S11347100DD0032B0ED0002B01D000200CE0802103
S1134720074A09021268101E8842F6D104E0054BBC
S1134730186801E0FA2080007047C04600700C59E8
S1134740200200202402002008B5FFF7DDFF08BD89
S113475008B5024B185CFFF759FF08BD1E6F000037
S113476008B56620FFF752FF08BD08B56620FFF7BD
S11347703DFF08BD044A1368002B04D0013B1360BD
S1134780002B00D162B670470802002072B6024ABC
S113479013680133136070470802002010B50B4BF7
S11347A00B4A1278002A04D1013B002BF8D10320D4
S11347B00AE0064C074801F079FA012803D0013CCD
S11347C0002CF7D1F3E7002010BDC046EA03000037
S11347D002D0075100E0074010B5064C064801F02E
S11347E065FA042804D0013C002CF7D1032000E032
S11347F0002010BDEA03000000E00740F7B5071CE5
S11348000E1C151C01930120002F18D0002916D06E
S1134810FFF7E2FD0A4C0021201C102201F073FF77
S113482027602671002D06D06B461B79A560237383
S11348306B461B7963730120FFF7D4FD0020FEBD96
S11348400C020020F0B5B24C8BB002900191237B96
S113485001206373FFF7C0FD2379029A934204D8C1
S11348600120FFF7BFFD022050E1029A2368920065
S1134870D6586B461B7907AC357823726B461B7A86
S11348802A1C237002239A4366600392012A01D0F2
S1134890052D0AD101219F4801F05AF9002809D1B8
S11348A00120FFF79FFD012030E1072D02D999482F
S11348B00321F1E70123637200240094944F009ACA
S11348C03B7B93421AD9009BBA689B009B58002BF0
S11348D00FD01A79D2070CD51A6807A8996890479F
S11348E0002806D06B461B7804247B73019B012BA4
S11348F004D1009B0133DBB20093DFE70120FFF713
S113490071FD854800F0D4FD039B012B1DD10138B6
S1134910C0B2022811D8FFF7E7FE804B98420CD8AA
S1134920FFF7B2FE7E4FB84207D8FFF7CDFEB8427C
S113493003D8FFF7B9FEB84207D9019B012B01D177
S1134940062407E0002C05D1FAE7019B012B52D085
S1134950002C50D00120FFF73FFD002307AE009D3F
S11349607372013DEDB2FF2D40D0694BAA009B68E4
S1134970D358002BF5D01A79D207F2D51A68301C17
S113498099689047EDE7072205AB1A7000225A7028
S1134990F2789A703279DA702B1C083B05A9022B45
S11349A003D873798B71B379CB717378002B00D0F2
S11349B084E0584801F000F9002800D00324002DB9
S11349C000D08AE0FFF7EAFE0024002800D09DE032
S11349D00120FFF701FD6B464D4E1B7A0025B37392
S11349E0022307AF7B72337BAB427CD80120FFF7F5
S11349F0F9FC201C8AE003200A2D00D986E0281C3B
S1134A00FBF7AEFD06080A1940583339C1282D00BA
S1134A10002250E003224EE03E4801F047F901280D
S1134A2007D03C48002101F0A3F8FFF7B7FE041EAD
S1134A306CD101223FE0374801F038F9042807D04F
S1134A403448022101F094F8FFF7C6FE041E5DD13C
S1134A50042230E0072205AB1A70063A03E007226D
S1134A6005AB1A70043A5A7096E7022205AB1A7025
S1134A70013A1A7104E00222012105AB1A7019717E
S1134A805A7189E70222002705AB1A702148013ABE
S1134A901A715F7101F00AF9012800D17CE71D4801
S1134AA0391C01F065F8FFF779FE041EBC4200D101
S1134AB072E72BE0052205AB1A706DE7012D00D8D3
S1134AC077E7B2780220174B002A02D01A69024312
S1134AD001E01A6982431A616BE7012D00D077E780
S1134AE0FFF77AFE70E7B268AB009B58002B0AD040
S1134AF01A79920707D51A68381C996890470028D4
S1134B0001D0052475730135EDB26CE70BB0F0BD2F
S1134B100C02002000E007400040064040420F0025
S1134B2080841E0000ED00E008B5064801F0BEF8E0
S1134B300023012803D00133042800D00A33181CB1
S1134B4008BDC04600E00740F7B5FF2403681C4ACF
S1134B501D0A25401C40AB009F581A4A061C9B584E
S1134B60281C0193FFF7F4FD211C0022381C01F0DE
S1134B70A5F8019BA4001C19842332795B05234307
S1134B8052001A60802372795B0523431A609023D4
S1134B90B2795B05234312011A60F3790A4A14437C
S1134BA01A042260002B0AD0084B5A5D002A06D052
S1134BB01F23134001229A40131C054A1360F7BDBA
S1134BC0746F00006C6F0000000018187C6F000008
S1134BD000E100E0F8B5FF24051C0368114A180A37
S1134BE020401C4083009F580F4A9E58FFF7B0FD99
S1134BF0381C211C012201F061F86A68381C211C50
S1134C0001F06CF888232A7AA40034195B05234345
S1134C1092001A6098235B051C436B7A9B01236006
S1134C20F8BDC046746F00006C6F000038B50C1CF2
S1134C30002802D1002C09D112E003680133F9D015
S1134C40051C0835FFF780FF281CF6E723680133AD
S1134C5006D0251C201C0C35FFF7BCFF2C1CF5E7E7
S1134C6038BD0000FF22030A134002400120904097
S1134C7002499B005B5858607047C046746F00003F
S1134C80FF22030A134002400120904002499B0086
S1134C905B5898607047C046746F000008B5084BB5
S1134CA08200D35894220233520513431B78002BFD
S1134CB002D000F041FA01E000F096FA08BDC046C7
S1134CC0246F0000031C80220C33520513431B780D
S1134CD0002BF7D00171704738B50D1C084B8000CC
S1134CE0C458201C291C1830FFF728FB0328F8D0CF
S1134CF0002801D004232374207CC0B238BDC046F0
S1134D001C020020F0B589B00290161C82003748BE
S1134D10059310580EAB019035481B7814580020A9
S1134D2007AA1080A27C8F0A04920122E274A27462
S1134D305A4253411E3FDBB203937B425F41FFB2B1
S1134D40CDB2874202D0CBB29C460D0A00216D0041
S1134D50EDB28F4204D1391C002E01D16B46197B70
S1134D600D4307AB1D700122002F02D062465A701A
S1134D700222A360E2600198291CFFF7A3FF0298B6
S1134D800F99FFF7A9FF237C002B0CD1002E0AD02A
S1134D90059BA660E36031780198FFF793FF0298C2
S1134DA00F99FFF799FF237C002B16D1039B002B4F
S1134DB013D0002F01D1002E0FD000230127A360B0
S1134DC00198E76000F0E2FF391C01982943FFF7DE
S1134DD079FF02980F99FFF77FFF0023E3746B4676
S1134DE0207C1B7CC0B2A37409B0F0BD246F00000A
S1134DF01C020020104A830010B598580F4A9C5892
S1134E00E37C002B05D0237C052B02D0237C042BD0
S1134E1009D19822831C5205134300221A7000F012
S1134E20C7FF01236374A37C002B03D0201C18301C
S1134E30FFF741FA10BDC046246F00001C02002099
S1134E40F7B5194B8700FB5801250093174BFE5803
S1134E50002E26D10C1C24220190081C311C01F0C8
S1134E6052FC201C311C1830FFF71EFA0198FFF782
S1134E7077FC009800F03AFF0C4B019AFC500C4B65
S1134E809A5C1F2313402A1C9A40131C094A13607E
S1134E909C22009B52050233134380226574351C07
S1134EA01A70281CFEBDC046246F00001C0200209E
S1134EB0206F000000E100E0F7B59C220027051CEC
S1134EC00D4E8400A359520501930C4BE358023351
S1134ED013431F70FFF749FC094B01985A5D1F23C8
S1134EE0134001229A40131C064A1830D367FFF777
S1134EF0F2F9A751F7BDC0461C020020246F000040
S1134F00206F000004E100E00A4B800070B5C55832
S1134F10094BC6584B68726993420AD00C1CFFF7C0
S1134F20D3FB0023011C6268281C00F0EDFE6368BB
S1134F30736170BD246F00001C020020F0B587B0BF
S1134F400FAC334F334D267884006559E459677CA0
S1134F50002F02D10320207458E0002E01D11E2717
S1134F600E9705930023A674E360A3602374236063
S1134F706374071C04920391FFF7C6FF902310216A
S1134F80AA1C5B05134319708421EB1C49050B43D0
S1134F900221197098235B05134302934023029A5C
S1134FA0281C137000F0F2FE039B381C198801239F
S1134FB000930E9B049A0193059BFFF7A3FE0D9BA0
S1134FC0002B15D0237C002B0FD10C9B281CA36035
S1134FD00D9BE3600C9B1978FFF774FE002E13D031
S1134FE0381C0E99FFF778FE0EE0237C042B0BD1BE
S1134FF000230126029A1370EB785B09334202D036
S1135000281C00F0D5FE6674207CC0B207B0F0BD49
S11350101C020020246F0000F0B58BB013AC247880
S1135020364E374D039484006559A459667C002E8E
S113503002D1032020745FE0039E002E01D11E36AE
S113504012960993109B00262360119BA66063604F
S11350506B461B7BE660A374267466740791089202
S11350600490FFF751FF9023AF1C5B053B4305936E
S11350701023059A281C13708422EB1C5205134339
S113508002221A7098235B053B4306934023069A39
S1135090137000F07BFE079B089A1988129B0096F8
S11350A001930498099BFFF72DFE227CD2B2B242F1
S11350B012D1059B11991A708C235B053B4301297E
S11350C000D108221A702B79039B002B12D004986C
S11350D01299FFF701FE0DE0237C042B0AD1069BF5
S11350E01E700126EB785B09334202D0281C00F0C5
S11350F05FFE6674207CC0B20BB0F0BD1C020020C1
S1135100246F00001FB5069C0094079C0194089C22
S1135110029401240394FFF711FF04B010BD1FB5DE
S1135120069C0094079C0194089C02940124039417
S1135130FFF772FF04B010BD842138B5244B820000
S1135140D5584905EB1C0B4302211970214BD45847
S113515090226B1852051A431278E978D2B2890664
S113516034D5942149051943097800292ED0012A00
S113517015D1EB78134202D0052323740CE0E368C5
S1135180013BE360002B07D0A368281C5A1CA260D3
S11351905978FFF797FD19E0FFF72CFE16E06268D7
S11351A0013A6260002A06D08C214905012A05D102
S11351B00B43082204E0FFF71DFE02E000220B432C
S11351C01A7023685A1C22602A791A7038BDC046A6
S11351D0246F00001C020020842303305B05184365
S11351E00223037070470000902149050A1CF0B5A2
S11351F08F4B071C8000C55889B0EB1C0493EB78D7
S1135200EE78DBB20593F3B20693AB1D1A439446D2
S113521012789826D2B20792942252051A4314782F
S11352207605621E9441E2B2824C33430459A81CB1
S11352300090084301921A780178D2B2C9B203915E
S11352400199029000292FD0079900290CD010232E
S11352506246281C1370FFF7BFFF236BF8B20121CD
S1135260002B00D0DCE0E0E0002A1DD04022281C06
S11352701A70FFF7B1FF231C2C331B78002B02D1CB
S1135280009A16433370236B002B03D0F8B28021AD
S1135290626B9847E37D002B04D0201C80211830DA
S11352A0FFF71BF80A23BFE0069B281C9E1101236D
S11352B01E40FFF791FF0122059B1B11134219D0D9
S11352C09023049A5B05134310221A70002E04D015
S11352D0EB785B07DB0F10D11AE0082323702C3422
S11352E02278002A00D0A0E0982300995B050B43A4
S11352F01A709AE0002E16D0EAE71023029A13706F
S1135300236B002B6ED0F8B20221626B984769E0E0
S1135310029A1370236B002B03D0F8B20421626B42
S113532098472B7981E0039B012B29D1EB78039AD1
S1135330134257D0029B1E702B79231C2C331B78ED
S1135340002B09D1019B002B06D19823009A5B0501
S113535013436A4612791A70236B002B03D0F8B2F8
S11353600821626B9847A37D002B04D0201C0821E0
S11353701830FEF7B2FF00236360E360237554E046
S11353802B79A268DBB2002A2AD022691370236920
S113539001332361A368013BA360A368002B44D1BC
S11353A0019B002B13D1231C2C331B78002B06D11B
S11353B09823009A5B0513436A4612791A70E37DB9
S11353C0002B04D0201C20211830FEF786FF002378
S11353D063752361236BF8B22021002B20D124E0D4
S11353E0072321E06368002B1DD0E3681A782B1C87
S11353F080210C3349050B431B78002BF7D02A710D
S1135400E3680133E3606368013B63606368002B16
S11354100BD1E3602375236B002B06D01021F8B267
S1135420626B984701E00623237009B0F0BDC046C3
S1135430246F00001C02002084235B0503431A78B8
S113544000239A4209D0802301305B051843037876
S1135450012B01D0024B00E0024B181C7047C046E0
S113546080841E0000127A0010B50D4A831D134378
S11354701B78DBB2002B10D0012B08D1041CFFF7E2
S1135480DBFF084B08341C432378D84006E0002097
S1135490022B03D1044B186800E0044810BDC04639
S11354A0000008110000901020020020006CDC02B3
S11354B00B4A831D13431B78DBB2012B06D0181E45
S11354C00CD00320022B09D0052007E080230130F3
S11354D05B05184300784342584101307047C04689
S11354E000000811021C031C9C20183340050343D0
S11354F0802018700020064B134318700548931D34
S113550003431B78D8B20028F8D1034B0B607047D3
S11355100000081300000811006CDC02F8B5041C3C
S11355200D1C171C1E1CFFF7C3FF012802D1002D00
S113553004D007E0022805D1012D03D1201C311C21
S1135540FFF7D0FF8022631C520513431D70842390
S113555002225B0523431A70231C0C4A08331343AD
S11355607A00D2B21A704022094B23431A70094AB6
S1135570A31D13431B78012BF9D1002D01D1064A39
S113558000E0064A3A4100203260F8BD0000901065
S1135590000008130000081180841E0000127A0025
S11355A00A4B10B51C681A1C0123002C0CD0802453
S11355B0074B03431C70074C831D23431B78022BAA
S11355C0F9D113680B600023181C10BD20020020C1
S11355D000000813000008119C23C9015B0518434F
S11355E0C9B201707047942349015B051843C9B2DD
S11355F00170704770B506680C1C301C2049FAF71E
S1135600C3FF1F49051C301CFBF744F80E1C081C83
S1135610E1210901FAF7B8FFE121E0800901301C1A
S1135620FBF738F80E1C081C3C21FAF7ADFF3C21AF
S11356302081301CFBF72EF86E22124BA1722380BE
S1135640FF32238895420BD9AD1A032201339BB252
S11356502380B72113405A1E93414900CA1AF0E728
S113566009499B0700D109490123CA5C954201D825
S1135670638003E00133AD1A0D2BF6D1A58070BD14
S113568080510100B20700004F6F0000426F00001C
S113569030B5114A0188031C8A180020812A19D8C0
S11356A05A88541E0B2C15D89C88651E1E2D11D8A3
S11356B0DD88172D0ED81D893B2D0BD89B7A3B2BEB
S11356C008D88B0701D0054B00E0054B9B5CA34237
S11356D04041C0B230BDC0464EF8FFFF4F6F0000DE
S11356E0426F000070B5124A838804889A186E23AA
S11356F0FF3363434588D318A2089B180D4A6E00F4
S1135700B25A9B18A20702D1022D00D8013B0B60AC
S1135710E1233C22C4881B015C4303895343827AFE
S1135720E3189A180868044B4343D3180B6070BD00
S11357304A05F5FF286F000080510100084B1A68E4
S113574080231B029A4209D1A02310305B05184321
S11357500368002B02D10133FF3303607047C04656
S113576020020020021C802110B5002301244905D9
S113577010320A431460136090224360520504609F
S11357801C300243136088225205024313608422B2
S11357905205024308431360036010BD031C9022AA
S11357A014335205134300221A6042601032016020
S11357B01A60704703680B6070470000114B820049
S11357C070B5D5588022104B92051A60041C281C11
S11357D0FFF7C8FF281CFFF7B1FF01201F22011C9F
S11357E00A4B0B4E1B5D345D134099402240C0258B
S11357F00B1C904007496D004B5148510B600860E9
S113580070BDC046606F00003C80845E5D6F000028
S11358105C6F000000E100E0F7B50027114B800049
S1135820C658081C0D1C0197FFF732FF041EBC422A
S113583016D001A9281CFFF755FF381CFEF784FF7A
S1135840011C80200002814206D0FAF79DFE011C53
S11358500198FAF799FE0190301C0199FFF79EFF19
S1135860201CFEBD606F0000F7B50025124B8000C0
S1135870C4580E1C201C01A90195FFF79BFF281C8E
S1135880FEF762FF051C8020000285420ED00B4B00
S1135890291C04341C43FAF777FE2768019C291C51
S11358A04443B8B2FAF770FE20180190311C01A8E5
S11358B0FFF7A0FEF7BDC046606F0000000078103F
S11358C0F0B50026184B800085B0C458081C0F1C86
S11358D001920396FFF7DCFE051EB54201D10025B7
S11358E01EE0381C03A9FFF7FDFE301C2768FEF7F5
S11358F02BFF011C80200002814206D0FAF744FEEF
S1135900011C0398FAF740FE0390039BBB42E6D3C5
S1135910A36088231C345B051C43019B9B0023600C
S1135920281C05B0F0BDC046606F00008822044BFF
S11359308000C35852051C33134389001960704713
S1135940606F00008822054B8000C3585205143351
S113595013431868431E9841C0B27047606F00003B
S11359606B46E0221B78D2021B041340090719433B
S1135970014BC018016070474410000008B5084B83
S11359808200D35890220333520513431B78002B13
S113599002D000F025F801E000F08AF808BDC04606
S11359A0646F000008B50C4B8000C2580B4B0021FB
S11359B0C3589C200333400518431171017094208F
S11359C0400503431970137F8B4203D02032101C0F
S11359D0FEF771FC08BDC04628020020646F000079
S11359E010B51E4B8200D3581D4951581A79002A0C
S11359F032D05A69002A11D09C2252050A431278E7
S1135A00002A0BD08A79DC68D2B2002C03D0227031
S1135A10DA680132DA605A69013A5A611A69002A6D
S1135A2012D0942252050A431278002A0CD09A68A4
S1135A30141E02D0147801329A608C711A69013AEA
S1135A401A619A6901329A611A69002A04D15B6960
S1135A50002B01D1FFF7A6FF10BDC046280200208D
S1135A60646F0000104A80008158002208B50F4B73
S1135A700331C358581CC2779C2040050843DA629E
S1135A801A701A835A629A621A630270942040054B
S1135A9001430A701A1C38321278002A03D0181DE8
S1135AA00121FEF71AFC08BD646F000028020020E3
S1135AB038B5254B8200D35824495258591CC97F04
S1135AC000293FD0D96A002916DB942149051143E6
S1135AD00978002910D0596A1C7F002905D0DD6A95
S1135AE0002D02DD0C78013159629471D96A0139B3
S1135AF0D962596B01315963D96A002905DA9424B2
S1135B00D11C6405214300240C70196B002911DD9C
S1135B109C2149051143097800290BD09279996A8F
S1135B20D2B2002903D00A709A6A01329A621A6BBF
S1135B30013A1A63DA6A002A04DC1B6B002B01DCCD
S1135B40FFF790FF38BDC04628020020646F0000B4
S1135B50012903D0032909D1842300E094235B05A0
S1135B6018430078431E9841C0B200E000207047FB
S1135B70034B013049011843C9B201707047C04654
S1135B8000008812942302305B0549011843C9B20E
S1135B9001707047034B023089011843C9B2017088
S1135BA07047C046000008138C2302305B05C9000F
S1135BB01843C9B201707047F7B5384EC21C16437A
S1135BC037780B78FFB20122072B65D8041C181C08
S1135BD00D1CFAF7CFFC04192A0D192A2A3A0023BE
S1135BE02F480134044323703378012BFCD152E055
S1135BF00322012F50D14023294801340443237048
S1135C003378042BFCD146E00021012B01D004237E
S1135C1002213078032298423ED1201CFFF7A8FFCE
S1135C200421204A13698B4333E00227BB4207D186
S1135C3000270B79BB4203D04979201CFFF7AAFF48
S1135C40194801340443277019E004231649621CDF
S1135C500A4313706A78A31C0B431A706B78002BE9
S1135C6006D1AB78002B03D0E978201CFFF78AFF1C
S1135C70AB79002B03D0E979201CFFF795FF0421B1
S1135C803378084ADBB20193019B01330193136912
S1135C900B43136130BF0022101CFEBD0000301006
S1135CA00000881200ED00E000001010024B0330E9
S1135CB018430078C0B270470000301014308023BD
S1135CC0012A04D18A401B051843026005E0DB0465
S1135CD0184301238B40D9430160704701238B4053
S1135CE0002A01D0436000E0836070470023C22291
S1135CF0037043708370C37043718371C371037203
S1135D0042728372C3727047F0B5002789B003935F
S1135D10FA2301253C1C9B005343069007910293F0
S1135D206D4201970123A3400493174B9E1CCA3371
S1135D300593049B318807985943FAF725FC029B85
S1135D40029AC31A824200D9131AAB4204D2B21E79
S1135D50177801941D1E03D0059B04369E42E8D19A
S1135D600134032C01D0002DDCD1039B002B00D087
S1135D701D603F231F40019B9B011F43069BFFB2F5
S1135D805F7009B0F0BDC0467E6F000094230230FE
S1135D905B0503431B78002B04D088235B05184361
S1135DA0042303E080231B0518433023037070474A
S1135DB09422831C52051A431278011C0220012AE2
S1135DC012D18022D2041343CF221A708022D2002F
S1135DD02023C878034004D0013A002A03D0C046E7
S1135DE0F6E7181C00E009207047000008B500F031
S1135DF05DF808BDF0B5474680B48CB0041C0D1C9A
S1135E0000F028F9274B061C98461B780F1C5BB240
S1135E1001330DD0201C291C00F0B4FB002807D04E
S1135E20201C291C00220023FAF746FD002805D176
S1135E30301C391C0CB004BC9046F0BD0123029305
S1135E40194B06940795039300230A93434604943D
S1135E5005951C78002C0FD1002300240893099485
S1135E6002A800F0BDFB002810D00A9B0193002B70
S1135E7011D1089E099FDBE700200021021C0B1CA6
S1135E80FBF736FE08900991022CE9D100F0C8FB1B
S1135E9021230360E9E700F0C3FB0A9B019303603D
S1135EA0E7E7C04630FFFF1F48700000F8B54F46D3
S1135EB046460C1C89465142C0B4051C1143580087
S1135EC0564E4008C90F9C460143B1423DD861007B
S1135ED049088846474669422943C90F3943B142B4
S1135EE033D84F495918114347D0022699170E4009
S1135EF0E10F0E434146294331D0011C114336D0F2
S1135F004649884249D04549884530D04146081A17
S1135F1000153C283BDC614600295ADB281C211C67
S1135F20FBF7E6FD00F02AFB00F08AF9012E40D0D1
S1135F30022E43D0002E0ED03A4A3B4BFCF7B0FC65
S1135F403A4A3B4BFCF7ACFC05E0101C191C2A1C1C
S1135F50231CFBF7A5FA0CBC90469946F8BD022E0B
S1135F6018D00FDC002EC8DB281C211CF3E74B469D
S1135F702E48002B1BDB2F49EDE7281C211C00F0C9
S1135F805FF9E8E7032EB8D128482B49E3E727480F
S1135F902849CBE725482649DDE780451ED0012E58
S1135FA02CD025DD022EF5D0032EEDD0ABE723490E
S1135FB0D1E7802424060B19191CCCE7194A1A4B83
S1135FC0FCF76EFC021C0B1C18481949FCF768FC12
S1135FD0C1E73C30A2DA00200021A7E7012E19D046
S1135FE010DD022E13D0032EC1D115481549B2E796
S1135FF0002E00D087E700200021ACE7802100209C
S11360000906A8E7002EB2D108480F49A3E70C48B7
S11360100E49A0E705480E499DE7C0460000F07F01
